{
    "contractName": "E2VBridgeVerifier",
    "abi": [
        {
            "inputs": [],
            "payable": false,
            "stateMutability": "nonpayable",
            "type": "constructor"
        },
        {
            "anonymous": false,
            "inputs": [
                {
                    "indexed": true,
                    "internalType": "bytes32",
                    "name": "_hash",
                    "type": "bytes32"
                }
            ],
            "name": "ExecOpertion",
            "type": "event"
        },
        {
            "anonymous": false,
            "inputs": [
                {
                    "indexed": true,
                    "internalType": "bytes32",
                    "name": "_value",
                    "type": "bytes32"
                }
            ],
            "name": "LockBridge",
            "type": "event"
        },
        {
            "anonymous": false,
            "inputs": [
                {
                    "indexed": true,
                    "internalType": "bytes32",
                    "name": "_value",
                    "type": "bytes32"
                }
            ],
            "name": "UpdateBridgeMerkleRoot",
            "type": "event"
        },
        {
            "anonymous": false,
            "inputs": [
                {
                    "indexed": false,
                    "internalType": "address",
                    "name": "_verifier",
                    "type": "address"
                },
                {
                    "indexed": false,
                    "internalType": "bool",
                    "name": "_status",
                    "type": "bool"
                }
            ],
            "name": "VerifierChanged",
            "type": "event"
        },
        {
            "constant": true,
            "inputs": [],
            "name": "bridge",
            "outputs": [
                {
                    "internalType": "address",
                    "name": "",
                    "type": "address"
                }
            ],
            "payable": false,
            "stateMutability": "view",
            "type": "function"
        },
        {
            "constant": true,
            "inputs": [],
            "name": "governance",
            "outputs": [
                {
                    "internalType": "address",
                    "name": "",
                    "type": "address"
                }
            ],
            "payable": false,
            "stateMutability": "view",
            "type": "function"
        },
        {
            "constant": false,
            "inputs": [
                {
                    "internalType": "bytes32",
                    "name": "_lastRoot",
                    "type": "bytes32"
                },
                {
                    "internalType": "bytes[]",
                    "name": "_sigs",
                    "type": "bytes[]"
                }
            ],
            "name": "lockBridge",
            "outputs": [],
            "payable": false,
            "stateMutability": "nonpayable",
            "type": "function"
        },
        {
            "constant": false,
            "inputs": [
                {
                    "internalType": "address",
                    "name": "_verifier",
                    "type": "address"
                }
            ],
            "name": "removeVerifier",
            "outputs": [],
            "payable": false,
            "stateMutability": "nonpayable",
            "type": "function"
        },
        {
            "constant": false,
            "inputs": [
                {
                    "internalType": "address",
                    "name": "_addr",
                    "type": "address"
                }
            ],
            "name": "setBridge",
            "outputs": [],
            "payable": false,
            "stateMutability": "nonpayable",
            "type": "function"
        },
        {
            "constant": false,
            "inputs": [
                {
                    "internalType": "address",
                    "name": "_addr",
                    "type": "address"
                }
            ],
            "name": "setGovernance",
            "outputs": [],
            "payable": false,
            "stateMutability": "nonpayable",
            "type": "function"
        },
        {
            "constant": false,
            "inputs": [
                {
                    "internalType": "bytes32",
                    "name": "_lastRoot",
                    "type": "bytes32"
                },
                {
                    "internalType": "bytes32",
                    "name": "_root",
                    "type": "bytes32"
                },
                {
                    "internalType": "bytes[]",
                    "name": "_sigs",
                    "type": "bytes[]"
                }
            ],
            "name": "updateBridgeMerkleRoot",
            "outputs": [],
            "payable": false,
            "stateMutability": "nonpayable",
            "type": "function"
        },
        {
            "constant": true,
            "inputs": [],
            "name": "verifierCount",
            "outputs": [
                {
                    "internalType": "uint8",
                    "name": "",
                    "type": "uint8"
                }
            ],
            "payable": false,
            "stateMutability": "view",
            "type": "function"
        },
        {
            "constant": true,
            "inputs": [
                {
                    "internalType": "address",
                    "name": "",
                    "type": "address"
                }
            ],
            "name": "verifiers",
            "outputs": [
                {
                    "internalType": "bool",
                    "name": "",
                    "type": "bool"
                }
            ],
            "payable": false,
            "stateMutability": "view",
            "type": "function"
        }
    ],
    "bytecode": "608060405234801561001057600080fd5b50600080546001600160a01b03191633179055610d7e806100326000396000f3fe608060405234801561001057600080fd5b50600436106100935760003560e01c80638dd14802116100665780638dd14802146100fe578063ab033ea914610111578063ca2dfd0a14610124578063e78cea9214610137578063fb4adf521461013f57610093565b806322f3d471146100985780633b77f843146100ad5780635aa6e675146100c05780636c824487146100de575b600080fd5b6100ab6100a636600461095e565b610154565b005b6100ab6100bb3660046109b4565b61040c565b6100c861062b565b6040516100d59190610bc1565b60405180910390f35b6100f16100ec36600461091a565b61063a565b6040516100d59190610bf1565b6100ab61010c36600461091a565b61064f565b6100ab61011f36600461091a565b61069b565b6100ab61013236600461091a565b6106e7565b6100c86107c5565b6101476107d4565b6040516100d59190610cd6565b60008381526004602052604090205460ff161561018c5760405162461bcd60e51b815260040161018390610c66565b60405180910390fd5b60015460408051636798480960e11b815290516001600160a01b0390921691829163cf3090129160048083019260209291908290030181600087803b1580156101d457600080fd5b505af11580156101e8573d6000803e3d6000fd5b505050506040513d601f19601f8201168201806040525061020c9190810190610940565b156102295760405162461bcd60e51b815260040161018390610c96565b60035460009061023b9060ff166107dd565b90508060ff168160010160ff1610156102665760405162461bcd60e51b815260040161018390610c86565b600083156104045760006103058787878581811061028057fe5b602002820190508035601e193684900301811261029c57600080fd5b9091016020810191503567ffffffffffffffff8111156102bb57600080fd5b368190038213156102cb57600080fd5b8080601f0160208091040260200160405190810160405280939291908181526020018383808284376000920191909152506107ef92505050565b6001600160a01b03811660009081526002602052604090205490915060ff166103405760405162461bcd60e51b815260040161018390610cb6565b8260ff1682600101106103ac576040516301670ba960e01b81526001600160a01b038516906301670ba990610379908a90600401610bff565b600060405180830381600087803b15801561039357600080fd5b505af11580156103a7573d6000803e3d6000fd5b505050505b60405187907fcb25eebb98662842a88d0bff2da1e608d9c6d1dd6225be7ae75dbf97133db51b90600090a260405187907f1325bca99982677a0330bda188c87b49684276196fa8353c2629e721838314c890600090a2505b505050505050565b60008381526004602052604090205460ff161561043b5760405162461bcd60e51b815260040161018390610c66565b60015460408051636798480960e11b815290516001600160a01b0390921691829163cf3090129160048083019260209291908290030181600087803b15801561048357600080fd5b505af1158015610497573d6000803e3d6000fd5b505050506040513d601f19601f820116820180604052506104bb9190810190610940565b15156001146104dc5760405162461bcd60e51b815260040161018390610cc6565b6003546000906104ee9060ff166107dd565b90508060ff168160010160ff1610156105195760405162461bcd60e51b815260040161018390610c86565b600083156106225760006105338787878581811061028057fe5b6001600160a01b03811660009081526002602052604090205490915060ff1661056e5760405162461bcd60e51b815260040161018390610cb6565b8260ff1682600101106105f55760405163af88790560e01b81526001600160a01b0385169063af887905906105a9908b908b90600401610c0d565b600060405180830381600087803b1580156105c357600080fd5b505af11580156105d7573d6000803e3d6000fd5b5050506000888152600460205260409020805460ff19166001179055505b60405187907ff11b2d65e025ac2e4f31fd8e1bcfdff0c34541d2abe948fb0d1ec1ee23f4c6ba90600090a2505b50505050505050565b6000546001600160a01b031681565b60026020526000908152604090205460ff1681565b6000546001600160a01b031633146106795760405162461bcd60e51b815260040161018390610ca6565b600180546001600160a01b0319166001600160a01b0392909216919091179055565b6000546001600160a01b031633146106c55760405162461bcd60e51b815260040161018390610ca6565b600080546001600160a01b0319166001600160a01b0392909216919091179055565b6000546001600160a01b031633146107115760405162461bcd60e51b815260040161018390610ca6565b6001600160a01b03811660009081526002602052604090205460ff16151560011461074e5760405162461bcd60e51b815260040161018390610c76565b6001600160a01b038116600090815260026020526040808220805460ff199081169091556003805460001960ff82811691909101169216919091179055517f236add70c20c2f60e43dcc488294664ab5296e7026500747f9ef20fc2ad600c8916107ba91849190610bcf565b60405180910390a150565b6001546001600160a01b031681565b60035460ff1681565b600360ff919091166001016002020490565b600080600080845160411461080a57600093505050506108aa565b50505060208201516040830151604184015160ff16601b81101561082c57601b015b8060ff16601b1415801561084457508060ff16601c14155b1561085557600093505050506108aa565b600186828585604051600081526020016040526040516108789493929190610c28565b6020604051602081039080840390855afa15801561089a573d6000803e3d6000fd5b5050506020604051035193505050505b92915050565b80356108aa81610d12565b60008083601f8401126108cd57600080fd5b50813567ffffffffffffffff8111156108e557600080fd5b6020830191508360208202830111156108fd57600080fd5b9250929050565b80516108aa81610d29565b80356108aa81610d32565b60006020828403121561092c57600080fd5b600061093884846108b0565b949350505050565b60006020828403121561095257600080fd5b60006109388484610904565b60008060006040848603121561097357600080fd5b600061097f868661090f565b935050602084013567ffffffffffffffff81111561099c57600080fd5b6109a8868287016108bb565b92509250509250925092565b600080600080606085870312156109ca57600080fd5b60006109d6878761090f565b94505060206109e78782880161090f565b935050604085013567ffffffffffffffff811115610a0457600080fd5b610a10878288016108bb565b95989497509550505050565b610a2581610ced565b82525050565b610a2581610cf8565b610a2581610cfd565b6000610a4a601983610ce4565b7f746865206f70657274696f6e2068616420657865637574656400000000000000815260200192915050565b6000610a83601383610ce4565b7207665726966696572206e6f7420696e206d617606c1b815260200192915050565b6000610ab2602183610ce4565b7f496e73756666696369656e74206e756d626572206f66207369676e61747572658152607360f81b602082015260400192915050565b6000610af5601583610ce4565b741d1a1948189c9a5919d9481a1859081b1bd8dad959605a1b815260200192915050565b6000610b26601183610ce4565b701c195c9b5a5cdcda5bdb8819195b9a5959607a1b815260200192915050565b6000610b53601783610ce4565b7f7369676e65722069736e27742061207665726966696572000000000000000000815260200192915050565b6000610b8c601883610ce4565b7f74686520627269646765206861646e2774206c6f636b65640000000000000000815260200192915050565b610a2581610d0c565b602081016108aa8284610a1c565b60408101610bdd8285610a1c565b610bea6020830184610a2b565b9392505050565b602081016108aa8284610a2b565b602081016108aa8284610a34565b60408101610c1b8285610a34565b610bea6020830184610a34565b60808101610c368287610a34565b610c436020830186610bb8565b610c506040830185610a34565b610c5d6060830184610a34565b95945050505050565b602080825281016108aa81610a3d565b602080825281016108aa81610a76565b602080825281016108aa81610aa5565b602080825281016108aa81610ae8565b602080825281016108aa81610b19565b602080825281016108aa81610b46565b602080825281016108aa81610b7f565b602081016108aa8284610bb8565b90815260200190565b60006108aa82610d00565b151590565b90565b6001600160a01b031690565b60ff1690565b610d1b81610ced565b8114610d2657600080fd5b50565b610d1b81610cf8565b610d1b81610cfd56fea365627a7a72315820403c725330264287fefcb63ea8824686a4f4a597c99e6bf8b310e3a33330b0206c6578706572696d656e74616cf564736f6c63430005100040",
    "sourcePath": "/Users/moglu/Developer/VeChainDevelop/Vechain-Asset-Bridge/src/SmartContracts/contracts/ethereum/Contract_E2VBridgeVerifier.sol",
    "compiler": {
        "name": "solc",
        "version": "0.5.16+commit.9c3226ce"
    },
    "functionHashes": {
        "bridge()": "e78cea92",
        "governance()": "5aa6e675",
        "lockBridge(bytes32,bytes[])": "22f3d471",
        "removeVerifier(address)": "ca2dfd0a",
        "setBridge(address)": "8dd14802",
        "setGovernance(address)": "ab033ea9",
        "updateBridgeMerkleRoot(bytes32,bytes32,bytes[])": "3b77f843",
        "verifierCount()": "fb4adf52",
        "verifiers(address)": "6c824487"
    },
    "gasEstimates": {
        "creation": {
            "codeDepositCost": "690800",
            "executionCost": "21556",
            "totalCost": "712356"
        },
        "external": {
            "bridge()": "infinite",
            "governance()": "infinite",
            "lockBridge(bytes32,bytes[])": "infinite",
            "removeVerifier(address)": "infinite",
            "setBridge(address)": "infinite",
            "setGovernance(address)": "infinite",
            "updateBridgeMerkleRoot(bytes32,bytes32,bytes[])": "infinite",
            "verifierCount()": "1199",
            "verifiers(address)": "infinite"
        },
        "internal": {
            "quorum(uint8)": "49"
        }
    }
}