{
    "contractName": "V2EBridgeVerifier",
    "abi": [
        {
            "inputs": [],
            "payable": false,
            "stateMutability": "nonpayable",
            "type": "constructor"
        },
        {
            "anonymous": false,
            "inputs": [
                {
                    "indexed": true,
                    "internalType": "bytes32",
                    "name": "_hash",
                    "type": "bytes32"
                },
                {
                    "indexed": false,
                    "internalType": "bytes[]",
                    "name": "_sig",
                    "type": "bytes[]"
                }
            ],
            "name": "ExecOpertion",
            "type": "event"
        },
        {
            "anonymous": false,
            "inputs": [
                {
                    "indexed": true,
                    "internalType": "bytes32",
                    "name": "_value",
                    "type": "bytes32"
                },
                {
                    "indexed": true,
                    "internalType": "address",
                    "name": "_verifier",
                    "type": "address"
                },
                {
                    "indexed": false,
                    "internalType": "bytes",
                    "name": "_sig",
                    "type": "bytes"
                }
            ],
            "name": "LockBridge",
            "type": "event"
        },
        {
            "anonymous": false,
            "inputs": [
                {
                    "indexed": true,
                    "internalType": "bytes32",
                    "name": "_value",
                    "type": "bytes32"
                },
                {
                    "indexed": true,
                    "internalType": "address",
                    "name": "_verifier",
                    "type": "address"
                },
                {
                    "indexed": false,
                    "internalType": "bytes",
                    "name": "_sig",
                    "type": "bytes"
                }
            ],
            "name": "UpdateBridgeMerkleRoot",
            "type": "event"
        },
        {
            "anonymous": false,
            "inputs": [
                {
                    "indexed": false,
                    "internalType": "address",
                    "name": "_verifier",
                    "type": "address"
                },
                {
                    "indexed": false,
                    "internalType": "bool",
                    "name": "_status",
                    "type": "bool"
                }
            ],
            "name": "VerifierChanged",
            "type": "event"
        },
        {
            "constant": false,
            "inputs": [
                {
                    "internalType": "address",
                    "name": "_verifier",
                    "type": "address"
                }
            ],
            "name": "addVerifier",
            "outputs": [],
            "payable": false,
            "stateMutability": "nonpayable",
            "type": "function"
        },
        {
            "constant": true,
            "inputs": [],
            "name": "bridge",
            "outputs": [
                {
                    "internalType": "address",
                    "name": "",
                    "type": "address"
                }
            ],
            "payable": false,
            "stateMutability": "view",
            "type": "function"
        },
        {
            "constant": true,
            "inputs": [],
            "name": "governance",
            "outputs": [
                {
                    "internalType": "address",
                    "name": "",
                    "type": "address"
                }
            ],
            "payable": false,
            "stateMutability": "view",
            "type": "function"
        },
        {
            "constant": false,
            "inputs": [
                {
                    "internalType": "bytes32",
                    "name": "_lastRoot",
                    "type": "bytes32"
                },
                {
                    "internalType": "bytes",
                    "name": "_sig",
                    "type": "bytes"
                }
            ],
            "name": "lockBridge",
            "outputs": [],
            "payable": false,
            "stateMutability": "nonpayable",
            "type": "function"
        },
        {
            "constant": true,
            "inputs": [
                {
                    "internalType": "bytes32",
                    "name": "",
                    "type": "bytes32"
                }
            ],
            "name": "lockBridgeProposals",
            "outputs": [
                {
                    "internalType": "uint8",
                    "name": "quorum",
                    "type": "uint8"
                },
                {
                    "internalType": "uint8",
                    "name": "approvalCount",
                    "type": "uint8"
                },
                {
                    "internalType": "bool",
                    "name": "executed",
                    "type": "bool"
                },
                {
                    "internalType": "bytes32",
                    "name": "value",
                    "type": "bytes32"
                }
            ],
            "payable": false,
            "stateMutability": "view",
            "type": "function"
        },
        {
            "constant": true,
            "inputs": [
                {
                    "internalType": "bytes32",
                    "name": "",
                    "type": "bytes32"
                }
            ],
            "name": "merkleRootProposals",
            "outputs": [
                {
                    "internalType": "uint8",
                    "name": "quorum",
                    "type": "uint8"
                },
                {
                    "internalType": "uint8",
                    "name": "approvalCount",
                    "type": "uint8"
                },
                {
                    "internalType": "bool",
                    "name": "executed",
                    "type": "bool"
                },
                {
                    "internalType": "bytes32",
                    "name": "value",
                    "type": "bytes32"
                }
            ],
            "payable": false,
            "stateMutability": "view",
            "type": "function"
        },
        {
            "constant": false,
            "inputs": [
                {
                    "internalType": "address",
                    "name": "_verifier",
                    "type": "address"
                }
            ],
            "name": "removeVerifier",
            "outputs": [],
            "payable": false,
            "stateMutability": "nonpayable",
            "type": "function"
        },
        {
            "constant": false,
            "inputs": [
                {
                    "internalType": "address",
                    "name": "_addr",
                    "type": "address"
                }
            ],
            "name": "setBridge",
            "outputs": [],
            "payable": false,
            "stateMutability": "nonpayable",
            "type": "function"
        },
        {
            "constant": false,
            "inputs": [
                {
                    "internalType": "address",
                    "name": "_addr",
                    "type": "address"
                }
            ],
            "name": "setGovernance",
            "outputs": [],
            "payable": false,
            "stateMutability": "nonpayable",
            "type": "function"
        },
        {
            "constant": false,
            "inputs": [
                {
                    "internalType": "bytes32",
                    "name": "_lastRoot",
                    "type": "bytes32"
                },
                {
                    "internalType": "bytes32",
                    "name": "_root",
                    "type": "bytes32"
                },
                {
                    "internalType": "bytes",
                    "name": "_sig",
                    "type": "bytes"
                }
            ],
            "name": "updateBridgeMerkleRoot",
            "outputs": [],
            "payable": false,
            "stateMutability": "nonpayable",
            "type": "function"
        },
        {
            "constant": true,
            "inputs": [],
            "name": "verifierCount",
            "outputs": [
                {
                    "internalType": "uint8",
                    "name": "",
                    "type": "uint8"
                }
            ],
            "payable": false,
            "stateMutability": "view",
            "type": "function"
        },
        {
            "constant": true,
            "inputs": [
                {
                    "internalType": "address",
                    "name": "",
                    "type": "address"
                }
            ],
            "name": "verifiers",
            "outputs": [
                {
                    "internalType": "bool",
                    "name": "",
                    "type": "bool"
                }
            ],
            "payable": false,
            "stateMutability": "view",
            "type": "function"
        }
    ],
    "bytecode": "608060405234801561001057600080fd5b50600080546001600160a01b031916331790556114ee806100326000396000f3fe608060405234801561001057600080fd5b50600436106100b45760003560e01c8063c3464c2c11610071578063c3464c2c14610155578063ca2dfd0a14610168578063ce926daf1461017b578063e78cea921461018e578063ec5d7c4314610196578063fb4adf52146101a9576100b4565b80635aa6e675146100b95780636c824487146100d75780638dd14802146100f75780639000b3d61461010c578063a2baf1721461011f578063ab033ea914610142575b600080fd5b6100c16101be565b6040516100ce91906112d7565b60405180910390f35b6100ea6100e5366004610f1f565b6101cd565b6040516100ce9190611311565b61010a610105366004610f1f565b6101e2565b005b61010a61011a366004610f1f565b610237565b61013261012d366004610f63565b6102da565b6040516100ce9493929190611406565b61010a610150366004610f1f565b61030c565b610132610163366004610f63565b610358565b61010a610176366004610f1f565b61038a565b61010a610189366004610f81565b61045d565b6100c1610819565b61010a6101a4366004610fe9565b610828565b6101b1610bdd565b6040516100ce91906113f8565b6000546001600160a01b031681565b60026020526000908152604090205460ff1681565b6000546001600160a01b031633146102155760405162461bcd60e51b815260040161020c906113c8565b60405180910390fd5b600180546001600160a01b0319166001600160a01b0392909216919091179055565b6000546001600160a01b031633146102615760405162461bcd60e51b815260040161020c906113c8565b6001600160a01b03811660009081526002602052604090819020805460ff1990811660019081179092556003805460ff818116850116921691909117905590517f236add70c20c2f60e43dcc488294664ab5296e7026500747f9ef20fc2ad600c8916102cf918491906112e5565b60405180910390a150565b6004602052600090815260409020805460019091015460ff808316926101008104821692620100009091049091169084565b6000546001600160a01b031633146103365760405162461bcd60e51b815260040161020c906113c8565b600080546001600160a01b0319166001600160a01b0392909216919091179055565b6005602052600090815260409020805460019091015460ff808316926101008104821692620100009091049091169084565b6000546001600160a01b031633146103b45760405162461bcd60e51b815260040161020c906113c8565b6001600160a01b03811660009081526002602052604090205460ff1615156001146103f15760405162461bcd60e51b815260040161020c906113a8565b6001600160a01b038116600090815260026020526040808220805460ff199081169091556003805460001960ff82811691909101169216919091179055517f236add70c20c2f60e43dcc488294664ab5296e7026500747f9ef20fc2ad600c8916102cf918491906112e5565b60008381526004602052604090205462010000900460ff16156104925760405162461bcd60e51b815260040161020c90611398565b60006104d48484848080601f016020809104026020016040519081016040528093929190818152602001838380828437600092019190915250610be692505050565b6001600160a01b03811660009081526002602052604090205490915060ff1661050f5760405162461bcd60e51b815260040161020c906113d8565b60015460408051636798480960e11b815290516001600160a01b0390921691829163cf3090129160048083019260209291908290030181600087803b15801561055757600080fd5b505af115801561056b573d6000803e3d6000fd5b505050506040513d601f19601f8201168201806040525061058f9190810190610f45565b15156001146105b05760405162461bcd60e51b815260040161020c906113e8565b600085815260046020526040902054610100900460ff166106ba576105d3610cb9565b6040805160a0810190915260035481906105ef9060ff16610ca7565b60ff168152600060208083018290526040808401839052606084018b90528051838152918201905260809092019190610638565b60608152602001906001900390816106235790505b5090526000878152600460209081526040918290208351815483860151948601511515620100000262ff00001960ff9687166101000261ff00199790941660ff1990931692909217959095169190911716929092178255606083015160018301556080830151805193945084936106b59260028501920190610ce9565b505050505b60008581526004602090815260408220805461ff0019811660016101009283900460ff90811682011690920217825560028201805491820180825590855292909320909261070a91018787610d46565b5050805460ff80821661010090920416106107cc5760405163af88790560e01b81526001600160a01b0383169063af8879059061074d908a908a9060040161132d565b600060405180830381600087803b15801561076757600080fd5b505af115801561077b573d6000803e3d6000fd5b5050825462ff0000191662010000178355505060405186907f316aaf55783ca8cff0983b2e34d22f6579232aafde4365d08f23167dbfeaf05e906107c3906002850190611300565b60405180910390a25b826001600160a01b0316867f730950e964247b3488b8e1031ab8453a5b4395228535416a7904d20da71460838787604051610808929190611386565b60405180910390a350505050505050565b6001546001600160a01b031681565b60008381526005602052604090205462010000900460ff161561085d5760405162461bcd60e51b815260040161020c90611398565b600061089f8484848080601f016020809104026020016040519081016040528093929190818152602001838380828437600092019190915250610be692505050565b6001600160a01b03811660009081526002602052604090205490915060ff166108da5760405162461bcd60e51b815260040161020c906113d8565b60015460408051636798480960e11b815290516001600160a01b0390921691829163cf3090129160048083019260209291908290030181600087803b15801561092257600080fd5b505af1158015610936573d6000803e3d6000fd5b505050506040513d601f19601f8201168201806040525061095a9190810190610f45565b156109775760405162461bcd60e51b815260040161020c906113b8565b600085815260056020526040902054610100900460ff16610a815761099a610cb9565b6040805160a0810190915260035481906109b69060ff16610ca7565b60ff168152600060208083018290526040808401839052606084018b905280518381529182019052608090920191906109ff565b60608152602001906001900390816109ea5790505b5090526000878152600560209081526040918290208351815483860151948601511515620100000262ff00001960ff9687166101000261ff00199790941660ff199093169290921795909516919091171692909217825560608301516001830155608083015180519394508493610a7c9260028501920190610ce9565b505050505b60008581526005602090815260408220805461ff0019811660016101009283900460ff908116820116909202178255600282018054918201808255908552929093209092610ad191018787610d46565b5050805460ff8082166101009092041610610b91576040516301670ba960e01b81526001600160a01b038316906301670ba990610b1290899060040161131f565b600060405180830381600087803b158015610b2c57600080fd5b505af1158015610b40573d6000803e3d6000fd5b5050825462ff0000191662010000178355505060405186907f316aaf55783ca8cff0983b2e34d22f6579232aafde4365d08f23167dbfeaf05e90610b88906002850190611300565b60405180910390a25b826001600160a01b0316867f6231f6a9f0d4c935a6abefcf97afabf528d42bed6cbf4e11bdaada378bee36b88787604051610bcd929190611386565b60405180910390a3505050505050565b60035460ff1681565b6000806000808451604114610c015760009350505050610ca1565b50505060208201516040830151604184015160ff16601b811015610c2357601b015b8060ff16601b14158015610c3b57508060ff16601c14155b15610c4c5760009350505050610ca1565b60018682858560405160008152602001604052604051610c6f9493929190611348565b6020604051602081039080840390855afa158015610c91573d6000803e3d6000fd5b5050506020604051035193505050505b92915050565b600360ff919091166001016002020490565b6040805160a081018252600080825260208201819052918101829052606080820192909252608081019190915290565b828054828255906000526020600020908101928215610d36579160200282015b82811115610d365782518051610d26918491602090910190610dc0565b5091602001919060010190610d09565b50610d42929150610e2e565b5090565b828054600181600116156101000203166002900490600052602060002090601f016020900481019282601f10610d875782800160ff19823516178555610db4565b82800160010185558215610db4579182015b82811115610db4578235825591602001919060010190610d99565b50610d42929150610e54565b828054600181600116156101000203166002900490600052602060002090601f016020900481019282601f10610e0157805160ff1916838001178555610db4565b82800160010185558215610db4579182015b82811115610db4578251825591602001919060010190610e13565b610e5191905b80821115610d42576000610e488282610e6e565b50600101610e34565b90565b610e5191905b80821115610d425760008155600101610e5a565b50805460018160011615610100020316600290046000825580601f10610e945750610eb2565b601f016020900490600052602060002090810190610eb29190610e54565b50565b8035610ca181611485565b8051610ca181611499565b8035610ca1816114a2565b60008083601f840112610ee857600080fd5b50813567ffffffffffffffff811115610f0057600080fd5b602083019150836001820283011115610f1857600080fd5b9250929050565b600060208284031215610f3157600080fd5b6000610f3d8484610eb5565b949350505050565b600060208284031215610f5757600080fd5b6000610f3d8484610ec0565b600060208284031215610f7557600080fd5b6000610f3d8484610ecb565b60008060008060608587031215610f9757600080fd5b6000610fa38787610ecb565b9450506020610fb487828801610ecb565b935050604085013567ffffffffffffffff811115610fd157600080fd5b610fdd87828801610ed6565b95989497509550505050565b600080600060408486031215610ffe57600080fd5b600061100a8686610ecb565b935050602084013567ffffffffffffffff81111561102757600080fd5b61103386828701610ed6565b92509250509250925092565b600061104b838361110c565b9392505050565b61105b8161144d565b82525050565b600061106c8261143a565b6110768185611444565b9350836020820285016110888561142e565b8060005b858110156110c1578484038952816110a4858261103f565b94506110af8361143e565b60209a909a019992505060010161108c565b5091979650505050505050565b61105b81611458565b61105b81610e51565b60006110ec8385611444565b93506110f983858461146f565b6111028361147b565b9093019392505050565b600081546001811660008114611129576001811461114f5761118e565b607f600283041661113a8187611444565b60ff198416815295505060208501925061118e565b6002820461115d8187611444565b95506111688561142e565b60005b828110156111875781548882015260019091019060200161116b565b8701945050505b505092915050565b60006111a3601983611444565b7f746865206f70657274696f6e2068616420657865637574656400000000000000815260200192915050565b60006111dc601383611444565b7207665726966696572206e6f7420696e206d617606c1b815260200192915050565b600061120b601583611444565b741d1a1948189c9a5919d9481a1859081b1bd8dad959605a1b815260200192915050565b600061123c601183611444565b701c195c9b5a5cdcda5bdb8819195b9a5959607a1b815260200192915050565b6000611269601783611444565b7f7369676e65722069736e27742061207665726966696572000000000000000000815260200192915050565b60006112a2601883611444565b7f74686520627269646765206861646e2774206c6f636b65640000000000000000815260200192915050565b61105b81611469565b60208101610ca18284611052565b604081016112f38285611052565b61104b60208301846110ce565b6020808252810161104b8184611061565b60208101610ca182846110ce565b60208101610ca182846110d7565b6040810161133b82856110d7565b61104b60208301846110d7565b6080810161135682876110d7565b61136360208301866112ce565b61137060408301856110d7565b61137d60608301846110d7565b95945050505050565b60208082528101610f3d8184866110e0565b60208082528101610ca181611196565b60208082528101610ca1816111cf565b60208082528101610ca1816111fe565b60208082528101610ca18161122f565b60208082528101610ca18161125c565b60208082528101610ca181611295565b60208101610ca182846112ce565b6080810161141482876112ce565b61142160208301866112ce565b61137060408301856110ce565b60009081526020902090565b5490565b60010190565b90815260200190565b6000610ca18261145d565b151590565b6001600160a01b031690565b60ff1690565b82818337506000910152565b601f01601f191690565b61148e8161144d565b8114610eb257600080fd5b61148e81611458565b61148e81610e5156fea365627a7a7231582064c6a7deaa54b5e3f57ab75bba6bf44cb6fe2d46ab0bcd26dbd186c7267fb95f6c6578706572696d656e74616cf564736f6c63430005100040",
    "sourcePath": "/Users/moglu/Developer/VeChainDevelop/Vechain-Asset-Bridge/src/SmartContracts/contracts/vechainthor/Contract_V2EBridgeVerifier.sol",
    "compiler": {
        "name": "solc",
        "version": "0.5.16+commit.9c3226ce"
    },
    "functionHashes": {
        "addVerifier(address)": "9000b3d6",
        "bridge()": "e78cea92",
        "governance()": "5aa6e675",
        "lockBridge(bytes32,bytes)": "ec5d7c43",
        "lockBridgeProposals(bytes32)": "c3464c2c",
        "merkleRootProposals(bytes32)": "a2baf172",
        "removeVerifier(address)": "ca2dfd0a",
        "setBridge(address)": "8dd14802",
        "setGovernance(address)": "ab033ea9",
        "updateBridgeMerkleRoot(bytes32,bytes32,bytes)": "ce926daf",
        "verifierCount()": "fb4adf52",
        "verifiers(address)": "6c824487"
    },
    "gasEstimates": {
        "creation": {
            "codeDepositCost": "1071600",
            "executionCost": "21949",
            "totalCost": "1093549"
        },
        "external": {
            "addVerifier(address)": "infinite",
            "bridge()": "infinite",
            "governance()": "infinite",
            "lockBridge(bytes32,bytes)": "infinite",
            "lockBridgeProposals(bytes32)": "infinite",
            "merkleRootProposals(bytes32)": "infinite",
            "removeVerifier(address)": "infinite",
            "setBridge(address)": "infinite",
            "setGovernance(address)": "infinite",
            "updateBridgeMerkleRoot(bytes32,bytes32,bytes)": "infinite",
            "verifierCount()": "1221",
            "verifiers(address)": "infinite"
        },
        "internal": {
            "quorum(uint8)": "49"
        }
    }
}