{
    "contractName": "V2EBridgeHead",
    "abi": [
        {
            "inputs": [
                {
                    "internalType": "string",
                    "name": "_chainname",
                    "type": "string"
                },
                {
                    "internalType": "string",
                    "name": "_chainid",
                    "type": "string"
                }
            ],
            "payable": false,
            "stateMutability": "nonpayable",
            "type": "constructor"
        },
        {
            "anonymous": false,
            "inputs": [
                {
                    "indexed": true,
                    "internalType": "bytes32",
                    "name": "_lastRoot",
                    "type": "bytes32"
                },
                {
                    "indexed": true,
                    "internalType": "bool",
                    "name": "_status",
                    "type": "bool"
                }
            ],
            "name": "BridgeLockChange",
            "type": "event"
        },
        {
            "anonymous": false,
            "inputs": [
                {
                    "indexed": true,
                    "internalType": "address",
                    "name": "_token",
                    "type": "address"
                },
                {
                    "indexed": true,
                    "internalType": "address",
                    "name": "_to",
                    "type": "address"
                },
                {
                    "indexed": false,
                    "internalType": "uint256",
                    "name": "_amount",
                    "type": "uint256"
                }
            ],
            "name": "Claim",
            "type": "event"
        },
        {
            "anonymous": false,
            "inputs": [
                {
                    "indexed": true,
                    "internalType": "address",
                    "name": "_token",
                    "type": "address"
                },
                {
                    "indexed": true,
                    "internalType": "address",
                    "name": "_from",
                    "type": "address"
                },
                {
                    "indexed": true,
                    "internalType": "address",
                    "name": "_to",
                    "type": "address"
                },
                {
                    "indexed": false,
                    "internalType": "uint256",
                    "name": "_amount",
                    "type": "uint256"
                }
            ],
            "name": "Swap",
            "type": "event"
        },
        {
            "anonymous": false,
            "inputs": [
                {
                    "indexed": true,
                    "internalType": "bytes32",
                    "name": "_root",
                    "type": "bytes32"
                },
                {
                    "indexed": true,
                    "internalType": "uint256",
                    "name": "_from",
                    "type": "uint256"
                },
                {
                    "indexed": true,
                    "internalType": "bytes32",
                    "name": "_lastRoot",
                    "type": "bytes32"
                }
            ],
            "name": "UpdateMerkleRoot",
            "type": "event"
        },
        {
            "constant": true,
            "inputs": [],
            "name": "FREEZE",
            "outputs": [
                {
                    "internalType": "uint8",
                    "name": "",
                    "type": "uint8"
                }
            ],
            "payable": false,
            "stateMutability": "view",
            "type": "function"
        },
        {
            "constant": true,
            "inputs": [],
            "name": "NATIVETOKEN",
            "outputs": [
                {
                    "internalType": "uint8",
                    "name": "",
                    "type": "uint8"
                }
            ],
            "payable": false,
            "stateMutability": "view",
            "type": "function"
        },
        {
            "constant": true,
            "inputs": [],
            "name": "WRAPPEDTOKEN",
            "outputs": [
                {
                    "internalType": "uint8",
                    "name": "",
                    "type": "uint8"
                }
            ],
            "payable": false,
            "stateMutability": "view",
            "type": "function"
        },
        {
            "constant": true,
            "inputs": [],
            "name": "chainid",
            "outputs": [
                {
                    "internalType": "string",
                    "name": "",
                    "type": "string"
                }
            ],
            "payable": false,
            "stateMutability": "view",
            "type": "function"
        },
        {
            "constant": true,
            "inputs": [],
            "name": "chainname",
            "outputs": [
                {
                    "internalType": "string",
                    "name": "",
                    "type": "string"
                }
            ],
            "payable": false,
            "stateMutability": "view",
            "type": "function"
        },
        {
            "constant": false,
            "inputs": [
                {
                    "internalType": "address",
                    "name": "_token",
                    "type": "address"
                },
                {
                    "internalType": "address",
                    "name": "_owner",
                    "type": "address"
                },
                {
                    "internalType": "uint256",
                    "name": "_balance",
                    "type": "uint256"
                },
                {
                    "internalType": "bytes32[]",
                    "name": "_merkleProof",
                    "type": "bytes32[]"
                }
            ],
            "name": "claim",
            "outputs": [
                {
                    "internalType": "bool",
                    "name": "",
                    "type": "bool"
                }
            ],
            "payable": false,
            "stateMutability": "nonpayable",
            "type": "function"
        },
        {
            "constant": true,
            "inputs": [
                {
                    "internalType": "bytes32",
                    "name": "",
                    "type": "bytes32"
                }
            ],
            "name": "claimed",
            "outputs": [
                {
                    "internalType": "bytes32",
                    "name": "",
                    "type": "bytes32"
                }
            ],
            "payable": false,
            "stateMutability": "view",
            "type": "function"
        },
        {
            "constant": true,
            "inputs": [],
            "name": "governance",
            "outputs": [
                {
                    "internalType": "address",
                    "name": "",
                    "type": "address"
                }
            ],
            "payable": false,
            "stateMutability": "view",
            "type": "function"
        },
        {
            "constant": true,
            "inputs": [
                {
                    "internalType": "bytes32",
                    "name": "_merkleroot",
                    "type": "bytes32"
                },
                {
                    "internalType": "bytes32",
                    "name": "nodehash",
                    "type": "bytes32"
                }
            ],
            "name": "isClaim",
            "outputs": [
                {
                    "internalType": "bool",
                    "name": "",
                    "type": "bool"
                }
            ],
            "payable": false,
            "stateMutability": "view",
            "type": "function"
        },
        {
            "constant": false,
            "inputs": [
                {
                    "internalType": "bytes32",
                    "name": "_lastRoot",
                    "type": "bytes32"
                }
            ],
            "name": "lock",
            "outputs": [],
            "payable": false,
            "stateMutability": "nonpayable",
            "type": "function"
        },
        {
            "constant": true,
            "inputs": [],
            "name": "locked",
            "outputs": [
                {
                    "internalType": "bool",
                    "name": "",
                    "type": "bool"
                }
            ],
            "payable": false,
            "stateMutability": "view",
            "type": "function"
        },
        {
            "constant": true,
            "inputs": [],
            "name": "merkleRoot",
            "outputs": [
                {
                    "internalType": "bytes32",
                    "name": "",
                    "type": "bytes32"
                }
            ],
            "payable": false,
            "stateMutability": "view",
            "type": "function"
        },
        {
            "constant": true,
            "inputs": [],
            "name": "name",
            "outputs": [
                {
                    "internalType": "string",
                    "name": "",
                    "type": "string"
                }
            ],
            "payable": false,
            "stateMutability": "view",
            "type": "function"
        },
        {
            "constant": false,
            "inputs": [
                {
                    "internalType": "address",
                    "name": "_addr",
                    "type": "address"
                }
            ],
            "name": "setGovernance",
            "outputs": [],
            "payable": false,
            "stateMutability": "nonpayable",
            "type": "function"
        },
        {
            "constant": false,
            "inputs": [
                {
                    "internalType": "address",
                    "name": "_token",
                    "type": "address"
                },
                {
                    "internalType": "uint8",
                    "name": "_type",
                    "type": "uint8"
                }
            ],
            "name": "setToken",
            "outputs": [],
            "payable": false,
            "stateMutability": "nonpayable",
            "type": "function"
        },
        {
            "constant": false,
            "inputs": [
                {
                    "internalType": "address",
                    "name": "_addr",
                    "type": "address"
                }
            ],
            "name": "setVerifier",
            "outputs": [],
            "payable": false,
            "stateMutability": "nonpayable",
            "type": "function"
        },
        {
            "constant": false,
            "inputs": [
                {
                    "internalType": "address",
                    "name": "_token",
                    "type": "address"
                },
                {
                    "internalType": "uint256",
                    "name": "_amount",
                    "type": "uint256"
                },
                {
                    "internalType": "address",
                    "name": "_to",
                    "type": "address"
                }
            ],
            "name": "swap",
            "outputs": [
                {
                    "internalType": "bool",
                    "name": "",
                    "type": "bool"
                }
            ],
            "payable": false,
            "stateMutability": "nonpayable",
            "type": "function"
        },
        {
            "constant": true,
            "inputs": [
                {
                    "internalType": "address",
                    "name": "",
                    "type": "address"
                }
            ],
            "name": "tokens",
            "outputs": [
                {
                    "internalType": "uint8",
                    "name": "",
                    "type": "uint8"
                }
            ],
            "payable": false,
            "stateMutability": "view",
            "type": "function"
        },
        {
            "constant": false,
            "inputs": [
                {
                    "internalType": "bytes32",
                    "name": "_lastRoot",
                    "type": "bytes32"
                }
            ],
            "name": "unlock",
            "outputs": [],
            "payable": false,
            "stateMutability": "nonpayable",
            "type": "function"
        },
        {
            "constant": false,
            "inputs": [
                {
                    "internalType": "bytes32",
                    "name": "_lastRoot",
                    "type": "bytes32"
                },
                {
                    "internalType": "bytes32",
                    "name": "_root",
                    "type": "bytes32"
                }
            ],
            "name": "updateMerkleRoot",
            "outputs": [],
            "payable": false,
            "stateMutability": "nonpayable",
            "type": "function"
        },
        {
            "constant": true,
            "inputs": [],
            "name": "verifier",
            "outputs": [
                {
                    "internalType": "address",
                    "name": "",
                    "type": "address"
                }
            ],
            "payable": false,
            "stateMutability": "view",
            "type": "function"
        }
    ],
    "bytecode": "608060405260006004556008805460ff191690553480156200002057600080fd5b5060405162001a4c38038062001a4c833981810160405260408110156200004657600080fd5b81019080805160405193929190846401000000008211156200006757600080fd5b9083019060208201858111156200007d57600080fd5b82516401000000008111828201881017156200009857600080fd5b82525081516020918201929091019080838360005b83811015620000c7578181015183820152602001620000ad565b50505050905090810190601f168015620000f55780820380516001836020036101000a031916815260200191505b50604052602001805160405193929190846401000000008211156200011957600080fd5b9083019060208201858111156200012f57600080fd5b82516401000000008111828201881017156200014a57600080fd5b82525081516020918201929091019080838360005b83811015620001795781810151838201526020016200015f565b50505050905090810190601f168015620001a75780820380516001836020036101000a031916815260200191505b5060405250508251620001c391506002906020850190620001f8565b508051620001d9906003906020840190620001f8565b5050600180546001600160a01b0319163317905550436004556200029d565b828054600181600116156101000203166002900490600052602060002090601f016020900481019282601f106200023b57805160ff19168380011785556200026b565b828001600101855582156200026b579182015b828111156200026b5782518255916020019190600101906200024e565b50620002799291506200027d565b5090565b6200029a91905b8082111562000279576000815560010162000284565b90565b61179f80620002ad6000396000f3fe608060405234801561001057600080fd5b50600436106101375760003560e01c8063af887905116100b8578063cd84980e1161007c578063cd84980e14610374578063cf3090121461037c578063d83af14714610384578063e48603391461038c578063ec9b5b3a146103b2578063fabed412146103cf57610137565b8063af887905146102f5578063b7dfef1914610318578063c4767b9514610320578063c63fb02e1461034f578063cc3c0f061461035757610137565b80635816281c116100ff5780635816281c1461023c5780635aa6e6751461025a5780636d069a67146102625780638a946788146102ac578063ab033ea9146102cf57610137565b806301670ba91461013c57806306fdde031461015b5780632b7ac3f3146101d85780632eb4a7ab146101fc5780635437988d14610216575b600080fd5b6101596004803603602081101561015257600080fd5b503561045f565b005b610163610541565b6040805160208082528351818301528351919283929083019185019080838360005b8381101561019d578181015183820152602001610185565b50505050905090810190601f1680156101ca5780820380516001836020036101000a031916815260200191505b509250505060405180910390f35b6101e0610561565b604080516001600160a01b039092168252519081900360200190f35b610204610570565b60408051918252519081900360200190f35b6101596004803603602081101561022c57600080fd5b50356001600160a01b0316610576565b6102446105eb565b6040805160ff9092168252519081900360200190f35b6101e06105f0565b6102986004803603606081101561027857600080fd5b506001600160a01b038135811691602081013591604090910135166105ff565b604080519115158252519081900360200190f35b610298600480360360408110156102c257600080fd5b5080359060200135610bba565b610159600480360360208110156102e557600080fd5b50356001600160a01b0316610bce565b6101596004803603604081101561030b57600080fd5b5080359060200135610c43565b610163610db0565b6101596004803603604081101561033657600080fd5b5080356001600160a01b0316906020013560ff16610e3b565b610244610ebb565b6102046004803603602081101561036d57600080fd5b5035610ec0565b610163610ed2565b610298610f2d565b610244610f36565b610244600480360360208110156103a257600080fd5b50356001600160a01b0316610f3b565b610159600480360360208110156103c857600080fd5b5035610f50565b610298600480360360808110156103e557600080fd5b6001600160a01b0382358116926020810135909116916040820135919081019060808101606082013564010000000081111561042057600080fd5b82018360208201111561043257600080fd5b8035906020019184602083028401116401000000008311171561045457600080fd5b50909250905061102e565b6000546001600160a01b031633146104b2576040805162461bcd60e51b81526020600482015260116024820152701c195c9b5a5cdcda5bdb8819195b9a5959607a1b604482015290519081900360640190fd5b6007548114610503576040805162461bcd60e51b81526020600482015260186024820152771b185cdd081b595c9adb19481c9bdbdd081a5b9d985b1a5960421b604482015290519081900360640190fd5b6008805460ff1916600190811790915560405182907f1ca233e8649eb688a940d1c2dfae3c5d89e9d7ed1c35a5d39f9232332189d45c90600090a350565b606060405180606001604052806023815260200161174860239139905090565b6000546001600160a01b031681565b60075481565b6001546001600160a01b031633146105c9576040805162461bcd60e51b81526020600482015260116024820152701c195c9b5a5cdcda5bdb8819195b9a5959607a1b604482015290519081900360640190fd5b600080546001600160a01b0319166001600160a01b0392909216919091179055565b600181565b6001546001600160a01b031681565b60085460009060ff161561064e576040805162461bcd60e51b81526020600482015260116024820152701d1a1948189c9a5919d9481b1bd8dad959607a1b604482015290519081900360640190fd5b6001600160a01b03841660009081526006602052604090205460ff166001148061069357506001600160a01b03841660009081526006602052604090205460ff166002145b6106e4576040805162461bcd60e51b815260206004820152601c60248201527f746f6b656e206e6f74207265676973746572206f7220667265657a6500000000604482015290519081900360640190fd5b604080516370a0823160e01b81523360048201529051859185916001600160a01b038416916370a08231916024808301926020929190829003018186803b15801561072e57600080fd5b505afa158015610742573d6000803e3d6000fd5b505050506040513d602081101561075857600080fd5b505110156107a4576040805162461bcd60e51b8152602060048201526014602482015273696e73756666696369656e742062616c616e636560601b604482015290519081900360640190fd5b60408051636eb1769f60e11b8152336004820152306024820152905185916001600160a01b0384169163dd62ed3e91604480820192602092909190829003018186803b1580156107f357600080fd5b505afa158015610807573d6000803e3d6000fd5b505050506040513d602081101561081d57600080fd5b5051101561086b576040805162461bcd60e51b8152602060048201526016602482015275696e73756666696369656e7420616c6c6f77616e636560501b604482015290519081900360640190fd5b604080516370a0823160e01b815230600482015290516000916001600160a01b038416916370a0823191602480820192602092909190829003018186803b1580156108b557600080fd5b505afa1580156108c9573d6000803e3d6000fd5b505050506040513d60208110156108df57600080fd5b5051604080516323b872dd60e01b81523360048201523060248201526044810188905290519192506001600160a01b038416916323b872dd916064808201926020929091908290030181600087803b15801561093a57600080fd5b505af115801561094e573d6000803e3d6000fd5b505050506040513d602081101561096457600080fd5b50516109a8576040805162461bcd60e51b815260206004820152600e60248201526d1d1c985b9cd9995c8819985a5b1960921b604482015290519081900360640190fd5b604080516370a0823160e01b815230600482015290516000916001600160a01b038516916370a0823191602480820192602092909190829003018186803b1580156109f257600080fd5b505afa158015610a06573d6000803e3d6000fd5b505050506040513d6020811015610a1c57600080fd5b5051905085610a2b828461162f565b14610a73576040805162461bcd60e51b815260206004820152601360248201527218985b185b98d94818da1958dac819985a5b19606a1b604482015290519081900360640190fd5b6001600160a01b03871660009081526006602052604090205460ff1660021415610b685760408051633fb0971b60e01b815230600482015260248101889052905188916001600160a01b03831691633fb0971b916044808201926020929091908290030181600087803b158015610ae957600080fd5b505af1158015610afd573d6000803e3d6000fd5b505050506040513d6020811015610b1357600080fd5b5051610b66576040805162461bcd60e51b815260206004820152601c60248201527f7772617070656420746f6b656e207265636f76657279206661696c6400000000604482015290519081900360640190fd5b505b6040805187815290516001600160a01b03808816923392918b16917fffebebfb273923089a3ed6bac0fd4686ac740307859becadeb82f998e30db6149181900360200190a45060019695505050505050565b600091825260056020526040909120541490565b6001546001600160a01b03163314610c21576040805162461bcd60e51b81526020600482015260116024820152701c195c9b5a5cdcda5bdb8819195b9a5959607a1b604482015290519081900360640190fd5b600180546001600160a01b0319166001600160a01b0392909216919091179055565b6000546001600160a01b03163314610c96576040805162461bcd60e51b81526020600482015260116024820152701c195c9b5a5cdcda5bdb8819195b9a5959607a1b604482015290519081900360640190fd5b6007548214610ce7576040805162461bcd60e51b81526020600482015260186024820152771b185cdd081b595c9adb19481c9bdbdd081a5b9d985b1a5960421b604482015290519081900360640190fd5b60085460ff161515600114610d3b576040805162461bcd60e51b8152602060048201526015602482015274746865206272696467652069736e2774206c6f636b60581b604482015290519081900360640190fd5b60078190556008805460ff1916905560045460405183919083907fd2a4a986f2f28739ae766dfae611eed5644dfed24f88aecb7598ee21e9d8c9d590600090a460405160009083907f1ca233e8649eb688a940d1c2dfae3c5d89e9d7ed1c35a5d39f9232332189d45c908390a3505043600455565b6002805460408051602060018416156101000260001901909316849004601f81018490048402820184019092528181529291830182828015610e335780601f10610e0857610100808354040283529160200191610e33565b820191906000526020600020905b815481529060010190602001808311610e1657829003601f168201915b505050505081565b6001546001600160a01b03163314610e8e576040805162461bcd60e51b81526020600482015260116024820152701c195c9b5a5cdcda5bdb8819195b9a5959607a1b604482015290519081900360640190fd5b6001600160a01b03919091166000908152600660205260409020805460ff191660ff909216919091179055565b600281565b60056020526000908152604090205481565b6003805460408051602060026001851615610100026000190190941693909304601f81018490048402820184019092528181529291830182828015610e335780601f10610e0857610100808354040283529160200191610e33565b60085460ff1681565b600081565b60066020526000908152604090205460ff1681565b6001546001600160a01b03163314610fa3576040805162461bcd60e51b81526020600482015260116024820152701c195c9b5a5cdcda5bdb8819195b9a5959607a1b604482015290519081900360640190fd5b6007548114610ff4576040805162461bcd60e51b81526020600482015260186024820152771b185cdd081b595c9adb19481c9bdbdd081a5b9d985b1a5960421b604482015290519081900360640190fd5b6008805460ff1916905560405160009082907f1ca233e8649eb688a940d1c2dfae3c5d89e9d7ed1c35a5d39f9232332189d45c908390a350565b60085460009060ff161561107d576040805162461bcd60e51b81526020600482015260116024820152701d1a1948189c9a5919d9481b1bd8dad959607a1b604482015290519081900360640190fd5b6001600160a01b03861660009081526006602052604090205460ff16600114806110c257506001600160a01b03861660009081526006602052604090205460ff166002145b611113576040805162461bcd60e51b815260206004820152601c60248201527f746f6b656e206e6f74207265676973746572206f7220667265657a6500000000604482015290519081900360640190fd5b600060026003878988604051602001808680546001816001161561010002031660029004801561117a5780601f1061115857610100808354040283529182019161117a565b820191906000526020600020905b815481529060010190602001808311611166575b5050858054600181600116156101000203166002900480156111d35780601f106111b15761010080835404028352918201916111d3565b820191906000526020600020905b8154815290600101906020018083116111bf575b5050846001600160a01b03166001600160a01b031660601b8152601401836001600160a01b03166001600160a01b031660601b81526014018281526020019550505050505060405160208183030381529060405280519060200120905061127184848080602002602001604051908101604052809392919081815260200183836020028082843760009201919091525050600754915084905061168c565b6112b2576040805162461bcd60e51b815260206004820152600d60248201526c34b73b30b634b210383937b7b360991b604482015290519081900360640190fd5b6112be60075482610bba565b15611310576040805162461bcd60e51b815260206004820152601960248201527f746865207377617020686173206265656e20636c61696d656400000000000000604482015290519081900360640190fd5b6001600160a01b03871660009081526006602052604090205460ff166002141561154a57604080516370a0823160e01b8152306004820152905188916000916001600160a01b038416916370a08231916024808301926020929190829003018186803b15801561137f57600080fd5b505afa158015611393573d6000803e3d6000fd5b505050506040513d60208110156113a957600080fd5b5051604080516340c10f1960e01b8152306004820152602481018a905290519192506001600160a01b038416916340c10f19916044808201926020929091908290030181600087803b1580156113fe57600080fd5b505af1158015611412573d6000803e3d6000fd5b505050506040513d602081101561142857600080fd5b505161147b576040805162461bcd60e51b815260206004820152601860248201527f7772617070656420746f6b656e206d696e74206661696c640000000000000000604482015290519081900360640190fd5b604080516370a0823160e01b815230600482015290516000916001600160a01b038516916370a0823191602480820192602092909190829003018186803b1580156114c557600080fd5b505afa1580156114d9573d6000803e3d6000fd5b505050506040513d60208110156114ef57600080fd5b50519050876114fe828461162f565b14611546576040805162461bcd60e51b815260206004820152601360248201527218985b185b98d94818da1958dac819985a5b19606a1b604482015290519081900360640190fd5b5050505b6040805163a9059cbb60e01b81526001600160a01b038881166004830152602482018890529151899283169163a9059cbb9160448083019260209291908290030181600087803b15801561159d57600080fd5b505af11580156115b1573d6000803e3d6000fd5b505050506040513d60208110156115c757600080fd5b50506007546115d69083611735565b866001600160a01b0316886001600160a01b03167f70eb43c4a8ae8c40502dcf22436c509c28d6ff421cf07c491be56984bd987068886040518082815260200191505060405180910390a3506001979650505050505050565b600082821115611686576040805162461bcd60e51b815260206004820152601e60248201527f536166654d6174683a207375627472616374696f6e206f766572666c6f770000604482015290519081900360640190fd5b50900390565b600081815b855181101561172a5760008682815181106116a857fe5b602002602001015190508083116116ef5782816040516020018083815260200182815260200192505050604051602081830303815290604052805190602001209250611721565b808360405160200180838152602001828152602001925050506040516020818303038152906040528051906020012092505b50600101611691565b509092149392505050565b6000918252600560205260409091205556fe5665436861696e54686f7220546f20457468657265756d206272696467652068656164a265627a7a72315820b369990821454e0df9fe8316eba636af571d366740f575b0b6c1a397481151a964736f6c63430005100032",
    "sourcePath": "/Users/moglu/Developer/VeChainDevelop/Vechain-Asset-Bridge/src/SmartContracts/contracts/vechainthor/Contract_V2EBridgeHead.sol",
    "compiler": {
        "name": "solc",
        "version": "0.5.16+commit.9c3226ce"
    },
    "functionHashes": {
        "FREEZE()": "d83af147",
        "NATIVETOKEN()": "5816281c",
        "WRAPPEDTOKEN()": "c63fb02e",
        "chainid()": "cd84980e",
        "chainname()": "b7dfef19",
        "claim(address,address,uint256,bytes32[])": "fabed412",
        "claimed(bytes32)": "cc3c0f06",
        "governance()": "5aa6e675",
        "isClaim(bytes32,bytes32)": "8a946788",
        "lock(bytes32)": "01670ba9",
        "locked()": "cf309012",
        "merkleRoot()": "2eb4a7ab",
        "name()": "06fdde03",
        "setGovernance(address)": "ab033ea9",
        "setToken(address,uint8)": "c4767b95",
        "setVerifier(address)": "5437988d",
        "swap(address,uint256,address)": "6d069a67",
        "tokens(address)": "e4860339",
        "unlock(bytes32)": "ec9b5b3a",
        "updateMerkleRoot(bytes32,bytes32)": "af887905",
        "verifier()": "2b7ac3f3"
    },
    "gasEstimates": {
        "creation": {
            "codeDepositCost": "1209400",
            "executionCost": "infinite",
            "totalCost": "infinite"
        },
        "external": {
            "FREEZE()": "273",
            "NATIVETOKEN()": "230",
            "WRAPPEDTOKEN()": "296",
            "chainid()": "infinite",
            "chainname()": "infinite",
            "claim(address,address,uint256,bytes32[])": "infinite",
            "claimed(bytes32)": "1217",
            "governance()": "1082",
            "isClaim(bytes32,bytes32)": "1222",
            "lock(bytes32)": "24232",
            "locked()": "1054",
            "merkleRoot()": "1088",
            "name()": "infinite",
            "setGovernance(address)": "22024",
            "setToken(address,uint8)": "22067",
            "setVerifier(address)": "22025",
            "swap(address,uint256,address)": "infinite",
            "tokens(address)": "1227",
            "unlock(bytes32)": "24309",
            "updateMerkleRoot(bytes32,bytes32)": "67799",
            "verifier()": "1105"
        },
        "internal": {
            "setClaim(bytes32,bytes32)": "20087"
        }
    }
}